:100000000C9462000C948A000C948A000C948A0070
:100010000C948A000C948A000C948A000C948A0038
:100020000C948A000C948A000C948A000C94A70704
:100030000C948A000C948A000C948A000C948A0018
:100040000C9405070C948A000C9475070C944F07C8
:100050000C948A000C948A000C948A000C948A00F8
:100060000C9463080C948A00000000002300260012
:10007000290000000000240027002A0000000000E2
:10008000250028002B0004040404040404040202D4
:100090000202020203030303030301020408102007
:1000A0004080010204081020010204081020000012
:1000B0000008000201000003040700000000000027
:1000C0000000F40911241FBECFEFD8E0DEBFCDBF82
:1000D00011E0A0E0B1E0EEE4F0E202C005900D9284
:1000E000A234B107D9F724E0A2E4B1E001C01D9227
:1000F000A437B207E1F710E0C2E6D0E004C02197D0
:10010000FE010E941810C136D107C9F70E94900A5B
:100110000C9425100C94000090E0FC01E255FF4F78
:100120002491FC01E656FF4F3491FC01EA57FF4F42
:10013000E491EE23C9F0222339F0233001F1A8F431
:10014000213019F1223029F1F0E0EE0FFF1FE458C1
:10015000FF4FA591B4918FB7F894EC91611126C02F
:1001600030953E233C938FBF08952730A9F0283067
:10017000C9F0243049F7809180008F7D03C08091C1
:1001800080008F7780938000DFCF84B58F7784BD28
:10019000DBCF84B58F7DFBCF8091B0008F778093CC
:1001A000B000D2CF8091B0008F7DF9CF3E2BDACF57
:1001B000CF93DF9390E0FC01E656FF4F24918A57DE
:1001C0009F4FFC0184918823D1F090E0880F991F04
:1001D000FC01EE58FF4FA591B491FC01E458FF4F8C
:1001E000C591D49161110EC09FB7F8948C91E22F04
:1001F000E0958E238C932881E223E8839FBFDF91D3
:10020000CF9108958FB7F894EC91E22BEC938FBFC8
:10021000F6CF8230910538F0880F991F880F991F0B
:1002200005970197F1F708953FB7F8948091EC0195
:100230009091ED01A091EE01B091EF0126B5A89B40
:1002400005C02F3F19F00196A11DB11D3FBFBA2F68
:10025000A92F982F8827BC01CD01620F711D811D28
:10026000911D42E0660F771F881F991F4A95D1F7AD
:1002700008958F929F92AF92BF92CF92DF92EF92AA
:10028000FF924B015C010E9414016B017C010E94F2
:1002900014016C197D098E099F09683E7340810520
:1002A0009105A8F321E0821A9108A108B10888EE0F
:1002B000C80E83E0D81EE11CF11C81149104A10436
:1002C000B10429F7FF90EF90DF90CF90BF90AF90EF
:1002D0009F908F9008950895CF93DF93AC01E091A4
:1002E000E101F091E2013097F1F09091E00180910D
:1002F000DF019817C0F090E0292F30E0261737076C
:1003000054F4D901A854BE4F240F351FE9012881A8
:100310002C939F5FF1CF1092E0016093DF01CB013E
:10032000DF91CF910994DF91CF910895AF92BF9261
:10033000CF92DF92EF92FF920F931F93CF93DF93B1
:100340006C017B018B01040F151FEB015E01AE18E0
:10035000BF08C017D10759F06991D601ED91FC9102
:100360000190F081E02DC6010995892B79F7C5012F
:10037000DF91CF911F910F91FF90EF90DF90CF9081
:10038000BF90AF900895FC01538D448D252F30E030
:10039000842F90E0821B930B541710F0CF96089592
:1003A00001970895FC01918D828D981761F0A28DBF
:1003B000AE0FBF2FB11D5D968C91928D9F5F9F7385
:1003C000928F90E008958FEF9FEF0895FC01918D3B
:1003D000828D981731F0828DE80FF11D858D90E0A8
:1003E00008958FEF9FEF0895FC01918D228D892F45
:1003F00090E0805C9F4F821B91098F73992708952D
:1004000080EF91E00E94F40121E0892B09F420E0C3
:10041000822F089580E090E0892B29F00E9400024D
:1004200081110C9400000895FC01A48DA80FB92F30
:10043000B11DA35ABF4F2C91848D90E001968F730C
:100440009927848FA689B7892C93A089B1898C912B
:10045000837080648C93938D848D981306C002887A
:10046000F389E02D80818F7D80830895EF92FF9244
:100470000F931F93CF93DF93EC0181E0888F9B8DC7
:100480008C8D98131AC0E889F989808185FF15C081
:100490009FB7F894EE89FF896083E889F9898081A4
:1004A0008370806480839FBF81E090E0DF91CF9173
:1004B0001F910F91FF90EF900895F62E0B8D10E095
:1004C0000F5F1F4F0F731127E02E8C8D8E110CC004
:1004D0000FB607FCFACFE889F989808185FFF5CF4F
:1004E000CE010E941402F1CFEB8DEC0FFD2FF11D18
:1004F000E35AFF4FF0829FB7F8940B8FEA89FB898C
:1005000080818062CFCFCF93DF93EC01888D8823E9
:10051000B9F0AA89BB89E889F9898C9185FD03C066
:10052000808186FD0DC00FB607FCF7CF8C9185FF4B
:10053000F2CF808185FFEDCFCE010E941402E9CF7A
:10054000DF91CF9108958F929F92AF92BF92FF92C9
:100550000F931F93CF93DF93FC01F0808BE08F15F7
:1005600008F44FC0828108E512E0081B110987FDDD
:100570001395000F111F000F111F8181C8E8D0E0F3
:10058000C81BD10987FDD395CC0FDD1FCC0FDD1F14
:100590004E010D2E000CAA08BB08DB01653B71055E
:1005A00014F0A4EBB0E09801012E000C440B550BA5
:1005B000281939094A095B090E94C30D24EB30E070
:1005C00040E050E00E94990D820E931EA41EB51EBD
:1005D0008C169D062CF0E801801691060CF4E401BF
:1005E0002297CC0FDD1F2FB7F8948F2D90E0FC01E0
:1005F000EE0FFF1FE80FF91FE756FD4FD283C183AF
:100600002FBFDF91CF911F910F91FF90BF90AF90BF
:100610009F908F9008951F93CF93DF93EC01162F37
:1006200088818C3008F04EC061E0812F0E94D80094
:100630008881282F30E0F901EE0FFF1FE20FF31F32
:10064000E756FD4F1F736081607C612B60831982C8
:100650001A822CE0622F0E940C10829FB00111249C
:1006600030E020E0AB01420F531FFA01EE0FFF1FF5
:10067000E40FF51FE756FD4F908196FD16C02F5FE2
:100680003F4F2C30310571F781110FC0109280005F
:1006900082E0809381001092850010928400B19ACC
:1006A00080916F00826080936F00E8818E2F90E0D0
:1006B000FC01EE0FFF1FE80FF91FE756FD4F808189
:1006C000806480838881DF91CF911F910895089580
:1006D000E091E0018091DF01E81730F4F0E0E854A8
:1006E000FE4F808190E008958FEF9FEF08959091E5
:1006F000E0018091DF012FEF3FEF981748F4E92FD9
:10070000F0E0E854FE4F208130E09F5F9093E001DD
:10071000C90108958091DF019091E001891B990B37
:10072000089590E080E0089520916E01260F332710
:10073000331F21323105ECF420919201FC0190E04D
:1007400080E0243069F082E00895A0916E0121914B
:10075000AC01425B5E4FA40FB52FB11D2C930196E7
:10076000861798F380916E01680F60936E0180E0A8
:10077000089581E00895CF93DF93CB01EA01642FC0
:100780000E949403CE01DF91CF910895CF93DF9320
:100790001F92CDB7DEB7698361E0CE0101960E945A
:1007A000940381E090E00F90DF91CF910895109233
:1007B000920181E0809394011092930161E082E1C3
:1007C0000E948C0061E083E10E948C00E9EBF0E084
:1007D00080818E7F808380818D7F808388E4809379
:1007E000B80085E48093BC000895EF92FF920F93C8
:1007F0001F93CF93DF93EC01E62E61E088810E9486
:10080000D80060E088810E948C008C859D850E94C4
:10081000090108E010E0FF24F39488819E2D9F21B8
:1008200061E009F460E00E948C008C859D850E9447
:100830000901FF0C0150110981F761E088810E94D4
:100840008C008C859D850E94090161E088810E9451
:100850008C008C859D85DF91CF911F910F91FF902A
:10086000EF900C940901FC01E60FF71F86A9833570
:1008700029F4483120F0493E28F446A7089548E17C
:1008800050E0FBCF48EE50E0F8CFCF93DF9325E167
:10089000289FF001299FF00D1124E459FC4F248971
:1008A0002111148A25E1289FE001299FD00D1124F0
:1008B000C459DC4F88818E836F83DB01A81BB1098B
:1008C000B7FF03C0B195A195B10928EE33E00E94AE
:1008D0001E1028E730E040E050E00E94990D288784
:1008E00039874A875B87DF91CF910895ECE6F3E083
:1008F00021E080859185A285B385181619061A0610
:100900001B06FCF4848981111CC08FB7F8944091B8
:10091000E8015091E9016091EA017091EB018FBF0C
:10092000448755876687778780859185A285B385BB
:10093000840F951FA61FB71F808B918BA28BB38B43
:10094000248B759684E0E836F80799F60895FC0143
:1009500001900020E9F73197AF01481B590BBC010A
:1009600080EF91E00C9496018F929F92AF92BF928C
:100970000F931F93CF93DF93CDB7DEB7A1970FB639
:10098000F894DEBF0FBECDBF19A2423008F44AE092
:100990008E010F5D1F4F842E912CB12CA12CA5012F
:1009A00094010E94CB0DE62FB901CA01EA30F4F49C
:1009B000E05DD801EE938D01232B242B252B79F7B5
:1009C00090E080E0109719F0CD010E94A704A19655
:1009D0000FB6F894DEBF0FBECDBFDF91CF911F9150
:1009E0000F91BF90AF909F908F900895E95CE1CFF9
:1009F000CF92DF92EF92FF92CF93DF936B017C0156
:100A00006DE280EF91E00E943602EC0166277727C5
:100A1000CB016C197D098E099F094AE00E94B4043C
:100A20008C0F9D1FDF91CF91FF90EF90DF90CF90C3
:100A30000895CF93DF93BC01990F880B990B97FF13
:100A40000CC00E94F804EC0180E391E00E94A7042E
:100A50008C0F9D1FDF91CF9108954AE00E94B4044E
:100A6000F2CFBC01990F880B990B97FD0C94F804F9
:100A70004AE00C94B404CF93DF938DE892E00E9497
:100A80007703EC01909347018093460180559109CB
:100A9000029718F0C335D10579F564E170E080E084
:100AA00090E00E9439018DE892E00E9477039093D4
:100AB0004501809344018DE892E00E947703909372
:100AC000430180934201CE010E94310583E391E00E
:100AD0000E94A70480914401909145010E94310534
:100AE00083E391E00E94A704809142019091430129
:100AF000DF91CF910C941905DF91CF910895CF9399
:100B0000DF9385ED8093BC0080914A0190914B0169
:100B1000A0914C01B0914D010796A11DB11D23E09C
:100B2000B695A795979587952A95D1F72091BC0002
:100B300024FD03C01092920136C040914A015091A9
:100B40004B0160914C0170914D01452B462B472B79
:100B500069F30097A105B10541F02AE22A95F1F762
:100B600000C00197A109B109E1CF8091490191E04D
:100B7000909348018823B9F0C091B800D091BA0091
:100B80008091BC008A7B8093BC0060E082E10E947F
:100B90008C0060E083E10E948C000E94D703D09318
:100BA000BA00C093B800DF91CF910895CF92DF9241
:100BB000EF92FF920F931F93CF93DF93EC016FEFB0
:100BC0000E94F5037E012EE2E20EF11C6E0132E37B
:100BD000C30ED11CF7016081CE010E94F503F7011D
:100BE00081917F018383EC15FD05A1F78EA59FA55B
:100BF000890F9927991F68A9860F911D69A9680F08
:100C0000792F711D872F992787FD9A95680F791F76
:100C1000CB0124E0880F991F2A95E1F7680F791F0F
:100C2000607F77278E819F81682B69A7CE010E9404
:100C3000F50360E088810E94D80061E070E080E008
:100C400090E00E94390138E0E32EF12CD12CCC2425
:100C5000C394888199819927FC01E656FF4F6491DE
:100C6000FC01EA57FF4FE491F0E0EE0FFF1FE85957
:100C7000FF4F8591949104EC19E020E030E0462F7D
:100C80000E948209611571058105910559F06F5F18
:100C90007F4F8F4F9F4F9F70613971408105910544
:100CA00008F0DC28CC0C21E0E21AF10891F6DEA273
:100CB0008E819F81FE01E80FF91F3EEFD31220C005
:100CC0002CEF26A726A92C3459F52A853B85232B02
:100CD00011F52BA526A721E030E03B872A8722E0EB
:100CE000D21669F1D1102BC03EEF2FE5AF014C1B9E
:100CF0005D0B443051051CF536A726AB3196F6CF77
:100D000021E0D212DFCF26A92F35E1F624EF26A766
:100D100023E526ABD7CF2CA526A71B861A86DFCFC7
:100D200032E0D312DFCF2F3551F41BA627E42CA7D6
:100D300016A621E030E03B872A872CE426AB998772
:100D4000888701968430910584F49F838E836AE0BE
:100D500070E080E090E0DF91CF911F910F91FF90C4
:100D6000EF90DF90CF900C9439011F821E82EFCF5D
:100D70008C3008F049C0462FE82FF0E0EE53F94FD1
:100D80000C941810CE06D8060407DB06E406E70626
:100D9000F0060407F306F806FC06000770E060E0C2
:100DA00082E393E00E94330482E393E00C94D6053F
:100DB00061E070E0F5CF70E060E088EF92E00E94C3
:100DC000330488EF92E0F2CF61E070E0F6CF70E09C
:100DD00060E08EEB92E00E9433048EEB92E0E6CF6F
:100DE00061E070E0F6CF70E088E694E00C94A30236
:100DF00070E08BE694E0FACF70E08EE694E0F6CFF8
:100E000070E081E794E0F2CF08951F920F920FB641
:100E10000F9211242F933F938F939F93AF93BF9380
:100E20008091E8019091E901A091EA01B091EB0174
:100E30003091E70123E0230F2D3758F50196A11DCE
:100E4000B11D2093E7018093E8019093E901A093FD
:100E5000EA01B093EB018091EC019091ED01A0913A
:100E6000EE01B091EF010196A11DB11D8093EC013F
:100E70009093ED01A093EE01B093EF01BF91AF917C
:100E80009F918F913F912F910F900FBE0F901F90C8
:100E9000189526E8230F0296A11DB11DD2CF1F92EF
:100EA0000F920FB60F9211242F933F934F935F939E
:100EB0006F937F938F939F93AF93BF93EF93FF9322
:100EC00080EF91E00E941402FF91EF91BF91AF91EA
:100ED0009F918F917F916F915F914F913F912F9152
:100EE0000F900FBE0F901F9018951F920F920FB684
:100EF0000F9211242F938F939F93EF93FF93E09181
:100F00000002F09101028081E0910602F091070257
:100F100082FD1BC09081809109028F5F8F732091A9
:100F20000A02821741F0E0910902F0E0E051FE4F21
:100F3000958F80930902FF91EF919F918F912F914F
:100F40000F900FBE0F901F9018958081F4CF1F92C5
:100F50000F920FB60F9211242F933F934F935F93ED
:100F60006F937F938F939F93AF93BF93CF93DF93B1
:100F7000EF93FF938091D801C091BD02D0E087FF2D
:100F800024C010928500109284008091D8018F5F58
:100F90008093D8018091D801082E000C990B8C17F2
:100FA0009D0724F48091D8018C30C4F18091840095
:100FB00090918500049680349C4908F47AC0809111
:100FC000840090918500049676C08091D801082E07
:100FD000000C990B8C179D07C4F6E091D8018E2F59
:100FE000EE0F990BFC01EE0FFF1FE80FF91FE756FC
:100FF000FD4F808186FFC9CFE091D8018E2FEE0F83
:10100000990BFC01EE0FFF1FE80FF91FE756FD4F8C
:10101000808160E08F730E948C00B7CF20918400A4
:1010200030918500E091D8018E2FEE0F990BFC01D5
:10103000EE0FFF1FE80FF91FE756FD4F81819281E8
:10104000820F931F9093890080938800E091D801CC
:101050008E2FEE0F990BFC01EE0FFF1FE80FF91F0B
:10106000E756FD4F808186FF11C0E091D8018E2F99
:10107000EE0F990BFC01EE0FFF1FE80FF91FE7566B
:10108000FD4F808161E08F730E948C00FF91EF9192
:10109000DF91CF91BF91AF919F918F917F916F9190
:1010A0005F914F913F912F910F900FBE0F901F9026
:1010B000189580E49CE990938900809388008FEFD5
:1010C0008093D801E3CF1F920F920FB60F92112495
:1010D0002F933F934F935F936F937F938F939F9340
:1010E000AF93BF93EF93FF938091B900887F8036D1
:1010F00009F44AC0F0F5883209F4A7C018F5803128
:1011000009F49BC0B8F4882309F4F9C0883009F4C5
:1011100094C0FF91EF91BF91AF919F918F917F917B
:101120006F915F914F913F912F910F900FBE0F9054
:101130001F901895883109F488C0803251F7809348
:10114000910114C0803409F49DC040F48033B9F398
:101150008833F9F68093910185ECB0C0803509F4AD
:1011600085C0883509F496C0883499F60E947F05B9
:10117000D0CF883909F48CC038F5883729F050F47D
:10118000883611F0803729F683E08093920110921F
:10119000900157C0883809F47BC0803919F0803835
:1011A00009F0B7CF80919001803208F071C0E091D2
:1011B000900181E08E0F809390018091BB00F0E060
:1011C000E059FE4F80833DC0803B39F0E0F4803A27
:1011D00009F479C0883A09F09CCF84E080939201A9
:1011E00010926F0110926E01E091DB01F091DC0131
:1011F000099580916E0181110FC081E080936E018D
:1012000010924E0109C0803C09F4A6CF883C09F435
:10121000A3CF883B09F07DCFE0916F0181E08E0F75
:1012200080936F01F0E0E25BFE4F80818093BB0012
:1012300090916F0180916E0129C08091B7018093D8
:10124000BB0085EC8093BC0064CF9091B601809187
:10125000B501981758F5E091B60181E08E0F8093A3
:10126000B601F0E0EB56FE4F8081E9CFE091B60188
:1012700081E08E0F8093B6018091BB00F0E0EB56C9
:10128000FE4F80839091B6018091B5019817C8F206
:1012900085E8D8CFE091B60181E08E0F8093B6014A
:1012A0008091BB00F0E0EB56FE4F8083809194016B
:1012B00081115CCF81E08093930184EA8093BC002C
:1012C0001092920126CF85EC8093BC00109292017F
:1012D00080919001803230F4E0919001F0E0E0598B
:1012E000FE4F10826091900170E0E091D901F09181
:1012F000DA0180E791E00995109290010ACF1092EF
:10130000910134CFCF92DF92EF92FF920F931F9310
:10131000E82FF92F05C0015011092109310961F1A8
:10132000908196239417B9F305C001501109210942
:10133000310911F1908196239413F7CFC12CD12C50
:10134000E12CF12C0AC08FEFC81AD80AE80AF80A73
:101350000C151D052E053F0579F080818623841725
:1013600091F36C2D7D2D8E2D9F2D1F910F91FF9050
:10137000EF90DF90CF90089560E070E080E090E023
:101380001F910F91FF90EF90DF90CF9008950F93F2
:101390001F93CF93DF93EC01162F072F1D821C8222
:1013A0001F821E82198618861B861A8681EA91E0A2
:1013B0009D878C871BA687E48CA78FEF8DA761E0A4
:1013C000812F0E94D800188309839EEF9EA78FE586
:1013D0008EAB9FA78FAB98AB88AF99AB89AFDF91EE
:1013E000CF911F910F9108951092F3011092F20185
:1013F00088EE93E0A0E0B0E08093F4019093F501D3
:10140000A093F601B093F70120E131E03093F101B0
:101410002093F00125EC30E03093FD012093FC0196
:1014200024EC30E03093FF012093FE0120EC30E00B
:10143000309301022093000221EC30E0309303024C
:101440002093020222EC30E0309305022093040244
:1014500026EC30E030930702209306021092090236
:1014600010920A0210920B0210920C02109290023B
:1014700010928F028093910290939202A093930214
:10148000B093940282E291E090938E0280938D0259
:10149000E8E6F4E02FEF48EB5BE08091BD028C3092
:1014A000E8F591E0980F9093BD02808390E0DC0115
:1014B000AA0FBB1FA80FB91FA756BD4F12965C936A
:1014C0004E931197339684E0E437F80731F7ECE652
:1014D000F3E088E694E0108611861286138614865F
:1014E000158616861786108A118A128A138A148A1C
:1014F00075968E179F0779F763E070E082E393E0BB
:101500000E94C70964E070E088EF92E00E94C7097A
:1015100062E070E08EEB92E00C94C7092083D2CF9A
:10152000CF93DF9300D000D000D0CDB7DEB7789452
:1015300084B5826084BD84B5816084BD85B58260D8
:1015400085BD85B5816085BD80916E008160809389
:101550006E001092810080918100826080938100F2
:101560008091810081608093810080918000816002
:10157000809380008091B10084608093B10080915D
:10158000B00081608093B00080917A008460809385
:101590007A0080917A00826080937A0080917A004C
:1015A000816080937A0080917A00806880937A00CD
:1015B0001092C10061E083E00E94D80061E084E005
:1015C0000E94D80061E082E00E94D80061E086E0DD
:1015D0000E94D80061E085E00E94D80061E088E0C8
:1015E0000E94D80061E087E00E94D800E0910002EC
:1015F000F091010282E08083E091FC01F091FD0115
:101600001082E091FE01F091FF018FEC8083109237
:101610000802E0910402F091050286E08083E091E7
:101620000202F0910302808180618083E0910202D6
:10163000F0910302808188608083E0910202F09142
:101640000302808180688083E0910202F0910302AE
:1016500080818F7D80831092E0011092DF011092D3
:10166000DE011092DD010E94D7038BE691E090939A
:10167000DC018093DB018CE691E09093DA018093AA
:10168000D9018AE18093BA008BE395E09093E2015F
:101690008093E10122E330E03A83298382E393E0FF
:1016A0000E94D60549815A81415051095A83498384
:1016B000452BA1F782E390E09A83898388EF92E03B
:1016C0000E94D605E981FA813197FA83E983EF2BED
:1016D000A9F722E330E03A8329838EEB92E00E945F
:1016E000D60549815A81415051095A834983452B76
:1016F000A1F78091F402833519F481EF8093EC0215
:101700008EEB92E00E94D60580916803833519F430
:1017100081EF8093600382E393E00E94D60580917D
:10172000F502833519F481EF8093ED028EEB92E0A0
:101730000E94D60580916903833519F481EF809367
:10174000610382E393E00E94D60585E391E00E9465
:10175000A70480E391E00E94A7040AE010E090E073
:10176000C92E91E0D92E2CE6E22E23E0F22E19822A
:10177000F60121916F012B83622F89810E94B806A7
:101780003B81632F70E0F70171836083F981FF5F14
:10179000F98325E1E20EF11CF83051F701501109EF
:1017A000F1F668E070E088E694E00E940B0368E0E0
:1017B00070E088E694E00E94A30288E090E09093B5
:1017C00015048093140467E070E08BE694E00E94B7
:1017D0000B0360E570E08BE694E00E94A30280E5D5
:1017E00090E090932A048093290466E070E08EE6EE
:1017F00094E00E940B036FEA70E08EE694E00E9492
:10180000A3028FEA90E090933F0480933E0465E04A
:1018100070E081E794E00E940B0368E770E081E7E5
:1018200094E00E94A30288E790E090935404809390
:1018300053048091F402833519F484EF8093EC0211
:101840008EEB92E00E94D60580916803833519F4EF
:1018500084EF8093600382E393E00E94D605809139
:10186000F502833519F484EF8093ED028EEB92E05C
:101870000E94D60580916903833519F484EF809323
:10188000610382E393E00E94D60500E911E081E55F
:10189000282E8091E5019091E601892B69F48091D1
:1018A000E3019091E4018130910509F4B9C00CF095
:1018B0005DC0892B09F47BC08091E5019091E60120
:1018C0008F3F980709F445C001979093E6018093F4
:1018D000E5018FB7F8948090E8019090E901A0901D
:1018E000EA01B090EB018FBF2CE633E03E832D83FD
:1018F000312CED81FE8184898823D9F0C088D1887C
:10190000E288F3886781262F30E03A832983C81460
:10191000D904EA04FB040CF0A9C031832083832D91
:101920000E94B806ED81FE81148A10861186128607
:1019300013862D813E812B5E3F4F3E832D83339452
:101940003CE03312D6CF62E070E080E090E00E948D
:10195000390140E050E0452B09F49BCF0E94000282
:10196000882309F494CF0E94000091CF8230910522
:1019700009F463C08336910509F09ECF83E690E0B9
:101980000E9419055FE35093230387E480932403A7
:1019900088EF92E00E94D605EFEFFFEFF093E601AB
:1019A000E093E501F093E401E093E30185CF90E05B
:1019B00080E00E9419053FE0309323032092240326
:1019C00088EF92E00E94D60582E393E00E94D6055C
:1019D00068E770E083E090E00E94450462E870E010
:1019E00084E090E00E94450464E670E086E090E0C8
:1019F0000E9445046CE870E081E090E00E9445049C
:101A00000E9476048091E3019091E4010196909305
:101A1000E4018093E3011093E6010093E5014CCFCC
:101A200081E090E00E94190566E970E086E090E0B0
:101A30000E94450460E570E0DFCF82E090E00E9404
:101A4000190568EC70E086E090E00E94450468E2C9
:101A500070E081E090E00E9445040E94760443E635
:101A600050E05093E4014093E301D5CFED81FE8136
:101A70006681262F30E03C832B83C701B6016819AD
:101A800079098A099B090E94130F2B013C01ED8102
:101A9000FE8184859585A685B785A7019601281BBB
:101AA000390B4A0B5B0BCA01B9010E94130F9B0152
:101AB000AC01C301B2010E94690E9B01AC0160E060
:101AC00070E080E89FE30E94FC0D6B017C0169815E
:101AD0007A814B815C81641B750B072E000C880B8F
:101AE000990B0E94130F9B01AC01C701B6010E9424
:101AF0009F0F6B017C01EB81FC81BF01FF0F880B05
:101B0000990B0E94130F9B01AC01C701B6010E9403
:101B1000FD0D0E94DB0EED81FE81208131812617B3
:101B2000370709F406CF71836083832D0E94B806BE
:101B300000CF052E97FB1EF400940E94B00D57FDB8
:101B400007D00E94CB0D07FC03D04EF40C94B00DCF
:101B500050954095309521953F4F4F4F5F4F0895D9
:101B600090958095709561957F4F8F4F9F4F089509
:101B70000E94ED0DA59F900DB49F900DA49F800D28
:101B8000911D11240895B7FF0C94B80D0E94B80D53
:101B9000821B930B0895A1E21A2EAA1BBB1BFD0109
:101BA0000DC0AA1FBB1FEE1FFF1FA217B307E4073C
:101BB000F50720F0A21BB30BE40BF50B661F771F94
:101BC000881F991F1A9469F7609570958095909574
:101BD0009B01AC01BD01CF010895A29FB001B39F4D
:101BE000C001A39F700D811D1124911DB29F700D26
:101BF000811D1124911D08955058BB27AA270E94CA
:101C0000140E0C94650F0E94570F38F00E945E0F5F
:101C100020F039F49F3F19F426F40C94540F0EF47D
:101C2000E095E7FB0C944E0FE92F0E94760F58F3D6
:101C3000BA17620773078407950720F079F4A6F5B1
:101C40000C94980F0EF4E0950B2EBA2FA02D0B01DB
:101C5000B90190010C01CA01A0011124FF27591BF1
:101C600099F0593F50F4503E68F11A16F040A22FF7
:101C7000232F342F4427585FF3CF46953795279568
:101C8000A795F0405395C9F77EF41F16BA0B620B67
:101C9000730B840BBAF09150A1F0FF0FBB1F661FAE
:101CA000771F881FC2F70EC0BA0F621F731F841FF1
:101CB00048F4879577956795B795F7959E3F08F017
:101CC000B0CF9395880F08F09927EE0F97958795D9
:101CD00008950E947D0E0C94650F0E945E0F58F0CF
:101CE0000E94570F40F029F45F3F29F00C944E0FEB
:101CF00051110C94990F0C94540F0E94760F68F3B5
:101D00009923B1F3552391F3951B550BBB27AA27B4
:101D100062177307840738F09F5F5F4F220F331FEE
:101D2000441FAA1FA9F335D00E2E3AF0E0E832D0B6
:101D300091505040E695001CCAF72BD0FE2F29D0B9
:101D4000660F771F881FBB1F261737074807AB078B
:101D5000B0E809F0BB0B802DBF01FF2793585F4F00
:101D60003AF09E3F510578F00C944E0F0C94990F69
:101D70005F3FE4F3983ED4F3869577956795B795E2
:101D8000F7959F5FC9F7880F911D9695879597F9ED
:101D90000895E1E0660F771F881FBB1F6217730766
:101DA0008407BA0720F0621B730B840BBA0BEE1F7B
:101DB00088F7E09508950E94E20E6894B1110C94A2
:101DC000990F08950E947E0F88F09F5798F0B92FC1
:101DD0009927B751B0F0E1F0660F771F881F991F60
:101DE0001AF0BA95C9F714C0B13091F00E94980F5B
:101DF000B1E008950C94980F672F782F8827B85F6B
:101E000039F0B93FCCF3869577956795B395D9F7B7
:101E10003EF490958095709561957F4F8F4F9F4FC1
:101E20000895E89409C097FB3EF4909580957095CD
:101E300061957F4F8F4F9F4F9923A9F0F92F96E916
:101E4000BB279395F695879577956795B795F1118B
:101E5000F8CFFAF4BB0F11F460FF1BC06F5F7F4F28
:101E60008F4F9F4F16C0882311F096E911C077233A
:101E700021F09EE8872F762F05C0662371F096E843
:101E8000862F70E060E02AF09A95660F771F881F12
:101E9000DAF7880F9695879597F9089597F99F67D0
:101EA00080E870E060E008959FEF80EC08950024E2
:101EB0000A941616170618060906089500240A94AF
:101EC00012161306140605060895092E0394000C35
:101ED00011F4882352F0BB0F40F4BF2B11F460FFC4
:101EE00004C06F5F7F4F8F4F9F4F089557FD9058ED
:101EF000440F551F59F05F3F71F04795880F97FBCE
:101F0000991F61F09F3F79F0879508951216130687
:101F10001406551FF2CF4695F1DF08C016161706B6
:101F20001806991FF1CF86957105610508940895EB
:101F3000E894BB2766277727CB0197F908950E947D
:101F4000B20F0C94650F0E94570F38F00E945E0F7D
:101F500020F0952311F00C944E0F0C94540F112483
:101F60000C94990F0E94760F70F3959FC1F3950F13
:101F700050E0551F629FF001729FBB27F00DB11D0D
:101F8000639FAA27F00DB11DAA1F649F6627B00D9D
:101F9000A11D661F829F2227B00DA11D621F739F86
:101FA000B00DA11D621F839FA00D611D221F749F94
:101FB0003327A00D611D231F849F600D211D822FDB
:101FC000762F6A2F11249F5750409AF0F1F0882302
:101FD0004AF0EE0FFF1FBB1F661F771F881F91502F
:101FE0005040A9F79E3F510580F00C944E0F0C9481
:101FF000990F5F3FE4F3983ED4F386957795679504
:10200000B795F795E7959F5FC1F7FE2B880F911D58
:102010009695879597F90895991B79E004C0991FC3
:10202000961708F0961B881F7A95C9F78095089532
:10203000EE0FFF1F0590F491E02D09940E94ED0D25
:0E204000B7FF0895821B930B0895F894FFCF0D
:10204E00FA648078821EAA800850AF7800000000E3
:10205E0036029601C3018302F401D201E6010000AB
:10206E000000C603BB03910367038A03770368036B
:10207E000D0A002D00696E696369616E646F2E2E04
:02208E002E0022
:00000001FF
